{
  "address": "0xEb25882253bcCeFf23Ae2ec76Cc2648A13d16f87",
  "abi": [
    {
      "anonymous": false,
      "inputs": [
        {
          "indexed": true,
          "internalType": "address",
          "name": "token",
          "type": "address"
        },
        {
          "indexed": true,
          "internalType": "address",
          "name": "wrappedToken",
          "type": "address"
        }
      ],
      "name": "TokenCreated",
      "type": "event"
    },
    {
      "inputs": [
        {
          "internalType": "address",
          "name": "token",
          "type": "address"
        }
      ],
      "name": "createToken",
      "outputs": [],
      "stateMutability": "nonpayable",
      "type": "function"
    },
    {
      "inputs": [
        {
          "internalType": "address",
          "name": "token",
          "type": "address"
        }
      ],
      "name": "tokenMap",
      "outputs": [
        {
          "internalType": "address",
          "name": "wrappedToken",
          "type": "address"
        }
      ],
      "stateMutability": "view",
      "type": "function"
    }
  ],
  "transactionHash": "0x87017fb8a251699ca7ff7ed57b9df963ad11a11a7e16c2b64cbd166f568b370d",
  "args": [],
  "numDeployments": 2,
  "solcInputHash": "b587feaa9a9b31f6bb96c4ad67e33216",
  "bytecode": "0x608060405234801561000f575f80fd5b506124048061001d5f395ff3fe608060405234801561000f575f80fd5b5060043610610033575f3560e01c80624aca6e14610037578063c21ab7f91461007b575b5f80fd5b61005f6100453660046101f7565b5f602081905290815260409020546001600160a01b031681565b6040516001600160a01b03909116815260200160405180910390f35b61008e6100893660046101f7565b610090565b005b6001600160a01b038181165f9081526020819052604090205416156100fb5760405162461bcd60e51b815260206004820152601460248201527f546f6b656e20616c726561647920657869737473000000000000000000000000604482015260640160405180910390fd5b5f604051610108906101ea565b604051809103905ff080158015610121573d5f803e3d5ffd5b5060405163189acdbd60e31b81526001600160a01b0384811660048301529192509082169063c4d66de8906024015f604051808303815f87803b158015610166575f80fd5b505af1158015610178573d5f803e3d5ffd5b505050506001600160a01b038281165f8181526020819052604080822080547fffffffffffffffffffffffff0000000000000000000000000000000000000000169486169485179055517fd5f9bdf12adf29dab0248c349842c3822d53ae2bb4f36352f301630d018c81399190a35050565b6121d38061022583390190565b5f60208284031215610207575f80fd5b81356001600160a01b038116811461021d575f80fd5b939250505056fe608060405234801562000010575f80fd5b5060408051602080820183525f808352835191820190935291825290620001a8620000cc604080516080810182525f808252602082018190529181018290526060810191909152506040805160808101825273fee8407e2f5e3ee68ad77cae98c434e637f516e5815273687408ab54661ba0b4aef3a44156c616c6955e07602082015273fb03be574d14c256d56f09a198b586bdfc0a9de291810191909152739d6891a6240d6130c54ae243d8005063d05fe14b606082015290565b80517fed8d60e34876f751cc8b014c560745351147d9de11b9347c854e881b128ea60080546001600160a01b03199081166001600160a01b039384161790915560208301517fed8d60e34876f751cc8b014c560745351147d9de11b9347c854e881b128ea6018054831691841691909117905560408301517fed8d60e34876f751cc8b014c560745351147d9de11b9347c854e881b128ea6028054831691841691909117905560608301517fed8d60e34876f751cc8b014c560745351147d9de11b9347c854e881b128ea6038054909216921691909117905550565b6001620001b683826200026c565b506002620001c582826200026c565b50505062000338565b634e487b7160e01b5f52604160045260245ffd5b600181811c90821680620001f757607f821691505b6020821081036200021657634e487b7160e01b5f52602260045260245ffd5b50919050565b601f8211156200026757805f5260205f20601f840160051c81016020851015620002435750805b601f840160051c820191505b8181101562000264575f81556001016200024f565b50505b505050565b81516001600160401b03811115620002885762000288620001ce565b620002a081620002998454620001e2565b846200021c565b602080601f831160018114620002d6575f8415620002be5750858301515b5f19600386901b1c1916600185901b17855562000330565b5f85815260208120601f198616915b828110156200030657888601518255948401946001909101908401620002e5565b50858210156200032457878501515f19600388901b60f8161c191681555b505060018460011b0185555b505050505050565b611e8d80620003465f395ff3fe608060405234801561000f575f80fd5b5060043610610115575f3560e01c80637b7e0a5a116100ad578063a9059cbb1161007d578063c4d66de811610063578063c4d66de814610263578063c5d664c614610276578063dd62ed3e146102a1575f80fd5b8063a9059cbb1461023d578063b32c100114610250575f80fd5b80637b7e0a5a146101fc57806395d89b411461020f5780639a09435214610217578063a0712d681461022a575f80fd5b8063313ce567116100e8578063313ce567146101885780633dae7c221461019d57806342966c68146101b157806370a08231146101c6575f80fd5b806306fdde0314610119578063095ea7b31461013757806318160ddd1461015a57806323b872dd14610175575b5f80fd5b6101216102b4565b60405161012e91906117ca565b60405180910390f35b61014a6101453660046117f7565b610344565b604051901515815260200161012e565b5f5460405167ffffffffffffffff909116815260200161012e565b61014a61018336600461181f565b6103b4565b60065b60405160ff909116815260200161012e565b60055461018b90600160a01b900460ff1681565b6101c46101bf366004611858565b6103e5565b005b6101ee6101d436600461186f565b6001600160a01b03165f9081526003602052604090205490565b60405190815260200161012e565b61014a61020a3660046118cd565b610568565b6101216105ac565b61014a610225366004611923565b6105bb565b6101c4610238366004611858565b61060d565b61014a61024b3660046117f7565b61079b565b61014a61025e3660046118cd565b6107d7565b6101c461027136600461186f565b61081b565b600554610289906001600160a01b031681565b6040516001600160a01b03909116815260200161012e565b6101ee6102af36600461198d565b610a47565b6060600180546102c3906119be565b80601f01602080910402602001604051908101604052809291908181526020018280546102ef906119be565b801561033a5780601f106103115761010080835404028352916020019161033a565b820191905f5260205f20905b81548152906001019060200180831161031d57829003601f168201915b5050505050905090565b5f61034e82610a76565b3361035a818585610a9f565b836001600160a01b0316816001600160a01b03167f8c5be1e5ebec7d5bd14f71427d1e84f3dd0314c0f7b2291e5b200ac8c7c3b9255f196040516103a091815260200190565b60405180910390a360019150505b92915050565b5f6103be82610a76565b335f6103cb868386610b47565b90506103d986868684610bd8565b50600195945050505050565b5f6103ef82610c38565b90505f8167ffffffffffffffff161161044f5760405162461bcd60e51b815260206004820152601360248201527f616d6f756e7420697320746f6f20736d616c6c0000000000000000000000000060448201526064015b60405180910390fd5b6005545f90600519600160a01b90910460ff160161046e5750816104f3565b6005546006600160a01b90910460ff1611156104bd575f600660055461049e9190600160a01b900460ff16611a0a565b6104a990600a611b03565b90506104b58185611b11565b9150506104f3565b6005545f90600160a01b900460ff1660066104d89190611a0a565b6104e390600a611b03565b90506104ef8185611b28565b9150505b5f81116105425760405162461bcd60e51b815260206004820152601e60248201527f616d6f756e7420756e6465726c79696e6720697320746f6f20736d616c6c00006044820152606401610446565b61054c3383610c72565b600554610563906001600160a01b03163383610d04565b505050565b5f6103d98561024b8686868080601f0160208091040260200160405190810160405280939291908181526020018383808284375f92019190915250610d7892505050565b6060600280546102c3906119be565b5f61060086866101838787878080601f0160208091040260200160405190810160405280939291908181526020018383808284375f92019190915250610d7892505050565b5060019695505050505050565b5f8061061883610d85565b6005546040516370a0823160e01b81523060048201529294509092505f916001600160a01b03909116906370a0823190602401602060405180830381865afa158015610666573d5f803e3d5ffd5b505050506040513d601f19601f8201168201806040525081019061068a9190611b47565b6005549091506106a5906001600160a01b0316333085610e53565b6005546040516370a0823160e01b81523060048201525f916001600160a01b0316906370a0823190602401602060405180830381865afa1580156106eb573d5f803e3d5ffd5b505050506040513d601f19601f8201168201806040525081019061070f9190611b47565b905061071b8383611b5e565b811461073a5760405163451d313b60e01b815260040160405180910390fd5b5f61074485610c38565b90506107503382610e92565b5f8054829190819061076d90849067ffffffffffffffff16611b71565b92506101000a81548167ffffffffffffffff021916908367ffffffffffffffff160217905550505050505050565b5f6107a582610a76565b335f908152600360205260408120546107bf908490610ee1565b90506107cd33858584610bd8565b5060019392505050565b5f6103d9856101458686868080601f0160208091040260200160405190810160405280939291908181526020018383808284375f92019190915250610d7892505050565b6005546001600160a01b0316156108745760405162461bcd60e51b815260206004820152601360248201527f416c726561647920696e697469616c697a6564000000000000000000000000006044820152606401610446565b600580547fffffffffffffffffffffffff0000000000000000000000000000000000000000166001600160a01b038316908117909155604080516306fdde0360e01b815290518392916306fdde03916004808301925f9291908290030181865afa1580156108e4573d5f803e3d5ffd5b505050506040513d5f823e601f3d908101601f1916820160405261090b9190810190611bad565b60405160200161091b9190611c4a565b604051602081830303815290604052600190816109389190611cd9565b50806001600160a01b03166395d89b416040518163ffffffff1660e01b81526004015f60405180830381865afa158015610974573d5f803e3d5ffd5b505050506040513d5f823e601f3d908101601f1916820160405261099b9190810190611bad565b6040516020016109ab9190611d99565b604051602081830303815290604052600290816109c89190611cd9565b50806001600160a01b031663313ce5676040518163ffffffff1660e01b8152600401602060405180830381865afa158015610a05573d5f803e3d5ffd5b505050506040513d601f19601f82011682018060405250810190610a299190611dc2565b600560146101000a81548160ff021916908360ff1602179055505050565b6001600160a01b038083165f9081526004602090815260408083209385168352929052908120545b9392505050565b610a7f81610f0f565b610a9c57604051632fa38b3f60e01b815260040160405180910390fd5b50565b6001600160a01b038316610ad15760405163e602df0560e01b81526001600160a01b0384166004820152602401610446565b6001600160a01b038216610b0357604051634a1406b160e11b81526001600160a01b0383166004820152602401610446565b6001600160a01b038084165f908152600460209081526040808320938616835292905220819055610b3381610f1a565b610b3d8184610f24565b6105638183610f24565b6001600160a01b038084165f9081526004602090815260408083209386168352929052908120545f610b798483610ee1565b6001600160a01b0387165f9081526003602052604081205491925090610ba0908690610ee1565b90505f610bad8284610f32565b9050610bcd8888610bc884610bc2898c610f3e565b89610f6c565b610a9f565b979650505050505050565b610be484848484610f80565b826001600160a01b0316846001600160a01b03167fddf252ad1be2c89b69c2b068fc378daa952ba7f163c4a11628f55a4df523b3ef5f19604051610c2a91815260200190565b60405180910390a350505050565b5f67ffffffffffffffff821115610c6e57604080516306dfcc6560e41b8152600481019190915260248101839052604401610446565b5090565b6001600160a01b0382165f90815260036020526040812054610c9490836110a7565b5f805491925083918190610cb390849067ffffffffffffffff16611de2565b825467ffffffffffffffff9182166101009390930a9283029190920219909116179055506001600160a01b0383165f908152600360205260409020819055610cfa81610f1a565b6105638184610f24565b6040516001600160a01b0383811660248301526044820183905261056391859182169063a9059cbb906064015b604051602081830303815290604052915060e01b6020820180517bffffffffffffffffffffffffffffffffffffffffffffffffffffffff83818316178352505050506110cf565b5f610a6f8383600561113b565b6005545f9081906006600160a01b90910460ff161115610e04576006600554610db89190600160a01b900460ff16611a0a565b610dc390600a611b03565b610dcd9084611b28565b91506006600554610de89190600160a01b900460ff16611a0a565b610df390600a611b03565b610dfd9083611b11565b9050915091565b6005546006600160a01b90910460ff161015610e4e57600554600160a01b900460ff166006610e339190611a0a565b610e3e90600a611b03565b610e489084611b11565b91508290505b915091565b6040516001600160a01b038481166024830152838116604483015260648201839052610e8c9186918216906323b872dd90608401610d31565b50505050565b610e9c828261124c565b6040515f1981526001600160a01b038316905f907fddf252ad1be2c89b69c2b068fc378daa952ba7f163c4a11628f55a4df523b3ef9060200160405180910390a35050565b5f82610ef357610ef05f611293565b92505b81610f0457610f015f611293565b91505b610a6f83835f61129f565b5f6103ae823361136f565b610a9c81306113f3565b610f2e82826113f3565b5050565b5f610a6f83835f611460565b5f82610f5057610f4d5f611293565b92505b81610f6157610f5e5f611293565b91505b610a6f83835f6114ea565b5f610f78848484611574565b949350505050565b6001600160a01b038416610fb257604051634b637e8f60e11b81526001600160a01b0385166004820152602401610446565b6001600160a01b038316610fe45760405163ec442f0560e01b81526001600160a01b0384166004820152602401610446565b5f610ff88284610ff35f611293565b610f6c565b6001600160a01b0385165f908152600360205260408120549192509061101e908361160a565b6001600160a01b0386165f908152600360205260409020819055905061104381610f1a565b61104d8186610f24565b6001600160a01b0386165f9081526003602052604081205461106f9084610f3e565b6001600160a01b0388165f908152600360205260409020819055905061109481610f1a565b61109e8188610f24565b50505050505050565b5f826110b9576110b65f611293565b92505b610a6f838367ffffffffffffffff1660016114ea565b5f8060205f8451602086015f885af1806110ee576040513d5f823e3d81fd5b50505f513d91508115611105578060011415611112565b6001600160a01b0384163b155b15610e8c57604051635274afe760e01b81526001600160a01b0385166004820152602401610446565b7fed8d60e34876f751cc8b014c560745351147d9de11b9347c854e881b128ea601546040516302e817ff60e41b81525f915f80516020611e61833981519152916001600160a01b0390911690632e817ff0906111a59088903390899060f88a901b90600401611e03565b6020604051808303815f875af11580156111c1573d5f803e3d5ffd5b505050506040513d601f19601f820116820180604052508101906111e59190611b47565b81546040516346ce4e4960e11b8152600481018390523360248201529193506001600160a01b031690638d9c9c92906044015f604051808303815f87803b15801561122e575f80fd5b505af1158015611240573d5f803e3d5ffd5b50505050509392505050565b6001600160a01b0382165f9081526003602052604081205461126e9083611638565b6001600160a01b0384165f9081526003602052604090208190559050610cfa81610f1a565b5f6103ae826005611660565b5f8082156112b25750600160f81b6112b5565b505f5b7fed8d60e34876f751cc8b014c560745351147d9de11b9347c854e881b128ea601546040516334a6d7b960e11b815260048101879052602481018690526001600160f81b0319831660448201525f80516020611e61833981519152916001600160a01b03169063694daf72906064015b6020604051808303815f875af1158015611341573d5f803e3d5ffd5b505050506040513d601f19601f820116820180604052508101906113659190611b47565b9695505050505050565b5f805f80516020611e618339815191528054604051632fd514cd60e11b8152600481018790526001600160a01b038681166024830152929350911690635faa299a90604401602060405180830381865afa1580156113cf573d5f803e3d5ffd5b505050506040513d601f19601f82011682018060405250810190610f789190611e41565b5f5f80516020611e618339815191528054604051631974142760e21b8152600481018690526001600160a01b0385811660248301529293509116906365d0509c906044015f604051808303815f87803b15801561144e575f80fd5b505af115801561109e573d5f803e3d5ffd5b5f8082156114735750600160f81b611476565b505f5b7fed8d60e34876f751cc8b014c560745351147d9de11b9347c854e881b128ea60154604051630ccd46b160e31b815260048101879052602481018690526001600160f81b0319831660448201525f80516020611e61833981519152916001600160a01b03169063666a358890606401611325565b5f8082156114fd5750600160f81b611500565b505f5b7fed8d60e34876f751cc8b014c560745351147d9de11b9347c854e881b128ea60154604051638c14cc2160e01b815260048101879052602481018690526001600160f81b0319831660448201525f80516020611e61833981519152916001600160a01b031690638c14cc2190606401611325565b5f805f80516020611e61833981519152600181015460405163cb3b940760e01b81526004810188905260248101879052604481018690529192506001600160a01b03169063cb3b9407906064016020604051808303815f875af11580156115dd573d5f803e3d5ffd5b505050506040513d601f19601f820116820180604052508101906116019190611b47565b95945050505050565b5f8261161c576116195f611293565b92505b8161162d5761162a5f611293565b91505b610a6f83835f6116f3565b5f8261164a576116475f611293565b92505b610a6f838367ffffffffffffffff1660016116f3565b5f805f80516020611e618339815191526001810154604051631ce2e8d760e31b8152600481018790526001600160f81b031960f887901b1660248201529192506001600160a01b03169063e71746b8906044016020604051808303815f875af11580156116cf573d5f803e3d5ffd5b505050506040513d601f19601f82011682018060405250810190610f789190611b47565b5f8082156117065750600160f81b611709565b505f5b7fed8d60e34876f751cc8b014c560745351147d9de11b9347c854e881b128ea6015460405163f953e42760e01b815260048101879052602481018690526001600160f81b0319831660448201525f80516020611e61833981519152916001600160a01b03169063f953e42790606401611325565b5f5b8381101561179757818101518382015260200161177f565b50505f910152565b5f81518084526117b681602086016020860161177d565b601f01601f19169290920160200192915050565b602081525f610a6f602083018461179f565b80356001600160a01b03811681146117f2575f80fd5b919050565b5f8060408385031215611808575f80fd5b611811836117dc565b946020939093013593505050565b5f805f60608486031215611831575f80fd5b61183a846117dc565b9250611848602085016117dc565b9150604084013590509250925092565b5f60208284031215611868575f80fd5b5035919050565b5f6020828403121561187f575f80fd5b610a6f826117dc565b5f8083601f840112611898575f80fd5b50813567ffffffffffffffff8111156118af575f80fd5b6020830191508360208285010111156118c6575f80fd5b9250929050565b5f805f80606085870312156118e0575f80fd5b6118e9856117dc565b935060208501359250604085013567ffffffffffffffff81111561190b575f80fd5b61191787828801611888565b95989497509550505050565b5f805f805f60808688031215611937575f80fd5b611940866117dc565b945061194e602087016117dc565b935060408601359250606086013567ffffffffffffffff811115611970575f80fd5b61197c88828901611888565b969995985093965092949392505050565b5f806040838503121561199e575f80fd5b6119a7836117dc565b91506119b5602084016117dc565b90509250929050565b600181811c908216806119d257607f821691505b6020821081036119f057634e487b7160e01b5f52602260045260245ffd5b50919050565b634e487b7160e01b5f52601160045260245ffd5b60ff82811682821603908111156103ae576103ae6119f6565b600181815b80851115611a5d57815f1904821115611a4357611a436119f6565b80851615611a5057918102915b93841c9390800290611a28565b509250929050565b5f82611a73575060016103ae565b81611a7f57505f6103ae565b8160018114611a955760028114611a9f57611abb565b60019150506103ae565b60ff841115611ab057611ab06119f6565b50506001821b6103ae565b5060208310610133831016604e8410600b8410161715611ade575081810a6103ae565b611ae88383611a23565b805f1904821115611afb57611afb6119f6565b029392505050565b5f610a6f60ff841683611a65565b80820281158282048414176103ae576103ae6119f6565b5f82611b4257634e487b7160e01b5f52601260045260245ffd5b500490565b5f60208284031215611b57575f80fd5b5051919050565b808201808211156103ae576103ae6119f6565b67ffffffffffffffff818116838216019080821115611b9257611b926119f6565b5092915050565b634e487b7160e01b5f52604160045260245ffd5b5f60208284031215611bbd575f80fd5b815167ffffffffffffffff80821115611bd4575f80fd5b818401915084601f830112611be7575f80fd5b815181811115611bf957611bf9611b99565b604051601f8201601f19908116603f01168101908382118183101715611c2157611c21611b99565b81604052828152876020848701011115611c39575f80fd5b610bcd83602083016020880161177d565b7f577261707065642070726976616379202d20000000000000000000000000000081525f8251611c8181601285016020870161177d565b9190910160120192915050565b601f82111561056357805f5260205f20601f840160051c81016020851015611cb35750805b601f840160051c820191505b81811015611cd2575f8155600101611cbf565b5050505050565b815167ffffffffffffffff811115611cf357611cf3611b99565b611d0781611d0184546119be565b84611c8e565b602080601f831160018114611d3a575f8415611d235750858301515b5f19600386901b1c1916600185901b178555611d91565b5f85815260208120601f198616915b82811015611d6857888601518255948401946001909101908401611d49565b5085821015611d8557878501515f19600388901b60f8161c191681555b505060018460011b0185555b505050505050565b61077760f41b81525f8251611db581600285016020870161177d565b9190910160020192915050565b5f60208284031215611dd2575f80fd5b815160ff81168114610a6f575f80fd5b67ffffffffffffffff828116828216039080821115611b9257611b926119f6565b8481526001600160a01b0384166020820152608060408201525f611e2a608083018561179f565b905060ff60f81b8316606083015295945050505050565b5f60208284031215611e51575f80fd5b81518015158114610a6f575f80fdfeed8d60e34876f751cc8b014c560745351147d9de11b9347c854e881b128ea600a164736f6c6343000818000aa164736f6c6343000818000a",
  "devdoc": {
    "kind": "dev",
    "methods": {},
    "version": 1
  },
  "userdoc": {
    "kind": "user",
    "methods": {},
    "version": 1
  },
  "storageLayout": {
    "storage": [
      {
        "astId": 2809,
        "contract": "contracts/TokenFactory.sol:TokenFactory",
        "label": "tokenMap",
        "offset": 0,
        "slot": "0",
        "type": "t_mapping(t_address,t_address)"
      }
    ],
    "types": {
      "t_address": {
        "encoding": "inplace",
        "label": "address",
        "numberOfBytes": "20"
      },
      "t_mapping(t_address,t_address)": {
        "encoding": "mapping",
        "key": "t_address",
        "label": "mapping(address => address)",
        "numberOfBytes": "32",
        "value": "t_address"
      }
    }
  }
}